:10000000EFC000000C947D120C94A41211C10000EA
:100010000FC100000DC100000BC100000C945D1762
:1000200007C1000005C1000003C1000001C10000BC
:10003000FFC000000C94C517FBC00000F9C0000011
:100040000C94CB12F5C000000C94BA150C94EC156E
:10005000EFC00000EDC00000EBC00000E9C00000F0
:100060000C947525E5C00000C51F8521EF21F22104
:10007000C920FC20841FA51F681FCC21BB21C821DB
:10008000F221F221F221531F0000000800020100BA
:100090000003040700000000000000000102040843
:1000A00010204080010204081020010204081020E2
:1000B000040404040404040402020202020203030E
:1000C0000303030300000000250028002B000000AC
:1000D0000000240027002A0002001D3A2774694E00
:1000E00053E8F5D2CF9C81A6BBCDD0F7EAB9A48363
:1000F0009E25381F02514C6B76879ABDA0F3EEC93E
:10010000D46F7255481B06213C4A57706D3E23043C
:1001100019A2BF9885D6CBECF1130E2934677A5D0E
:1001200040FBE6C1DC8F92B5A8DEC3E4F9AAB79024
:100130008D362B0C11425F78659489AEB3E0FDDA01
:10014000C77C61465B0815322F5944637E2D3017FA
:100150000AB1AC8B96C5D8FFE2263B1C01524F6812
:1001600075CED3F4E9BAA7809DEBF6D1CC9F82A5DA
:10017000B8031E3924776A4D50A1BC9B86D5C8EFC1
:10018000F24954736E3D20071A6C71564B180522C4
:100190003F8499BEA3F0EDCAD735280F12415C7B8E
:1001A00066DDC0E7FAA9B4938EF8E5C2DF8C91B69C
:1001B000AB100D2A3764795E43B2AF8895C6DBFC7D
:1001C000E15A47607D2E3314097F6245580B163182
:1001D0002C978AADB0E3FED9C40011167D167E249B
:1001E00011241FBECFEFD8E0DEBFCDBF13E0A0E0EB
:1001F000B1E0E6E2F6E502C005900D92A030B1074D
:10020000D9F725E0A0E0B3E001C01D92A83DB207F8
:10021000E1F710E0C0EFD0E004C02197FE010E949A
:100220009729CD3ED107C9F70E94BB260C94112B0C
:10023000E7CE81E994E00C94F723CF92DF92EF921E
:10024000FF920F931F93CF93DF931F92CDB7DEB72B
:10025000F82ED22E662389F0682F81E994E0498335
:100260000E9400244981642F81E994E00E94B9230F
:1002700060E081E994E00E940A244D2D6F2D81E910
:1002800094E00E947C2481E994E00E945E23892B03
:1002900021F4F8012D2D30E017C07801CD2CD12CA0
:1002A00081E994E00E945E23892BB1F0C701801B95
:1002B000910B8C159D0584F481E994E00E946623DE
:1002C000F70181937F01ECCFCF01801B910B821747
:1002D000930714F41192F8CF0F90DF91CF911F91F3
:1002E0000F91FF90EF90DF90CF9008951F93CF93E1
:1002F000DF931F92CDB7DEB7162F61E0812F798390
:100300000E943414812F7981972F0F90DF91CF9124
:100310001F9108950895CF93C82FCB01BA010E9471
:1003200018288C2FCF910C94AE13662311F061E046
:1003300001C060E00C943414662311F061E001C048
:1003400060E00C9470146F927F928F929F92AF92A4
:10035000BF92CF92DF92EF92FF920F931F93CF93B2
:10036000DF9300D000D01F92CDB7DEB72091C0053B
:100370003091C1054091C2055091C3056091C20101
:100380007091C3018091C4019091C5010E94FF2822
:100390009B01AC0160938005709381058093820579
:1003A000909383056091BA017091BB018091BC016B
:1003B0009091BD010E9447279B01AC016093840589
:1003C00070938505809386059093870511E0609171
:1003D000B6017091B7018091B8019091B9010E9466
:1003E000AC2718160CF410E010939505612F84E0EB
:1003F000A3DF8090840590908505A0908605B0903D
:100400008705E894B7F82091C4053091C50540915F
:10041000C6055091C705C501B4010E944827209127
:10042000AE013091AF014091B0015091B1010E94F5
:10043000FF287B018C016090B2017090B301C090E5
:10044000B401D090B5019301A6010E94FB281816B3
:1004500084F06090AA017090AB01C090AC01D09084
:10046000AD019301A601B701C8010E94AC2787FF27
:1004700002C0730186019701A8016091DA017091B1
:10048000DB018091DC019091DD010E944727AB01E7
:10049000BC01409388055093890560938A05709349
:1004A0008B058091AC059091AD0535DF04E915E031
:1004B00021E04FE061E086E3C0DE8E010F5F1F4F59
:1004C00021E04EE061E086E3B8DE698170E080E023
:1004D00090E00E9449282091DE013091DF01409197
:1004E000E0015091E1010E94FF289B01AC01609363
:1004F0008C0570938D0580938E0590938F05809168
:100500009405682F70E080E090E02A833B834C8361
:100510005D830E9449282A813B814C815D810E9434
:1005200048276B017C01609390057093910580933F
:100530009205909393052091C0053091C10540919B
:10054000C2055091C3056091CA017091CB018091A1
:10055000CC019091CD010E94FF289B01AC01C70105
:10056000B6010E9447272091C6013091C7014091F2
:10057000C8015091C9010E94B0276093C0057093D3
:10058000C1058093C2059093C3052091A6013091C7
:10059000A7014091A8015091A901C501B4010E9491
:1005A000FF282091D2013091D3014091D401509184
:1005B000D5010E94FF289B01AC016091C405709198
:1005C000C5058091C6059091C7050E944827609394
:1005D000C4057093C5058093C6059093C70581E057
:1005E00090E00E942A1240916B0550916C05609139
:1005F0006D0570916E0580E090E00E94261280905B
:100600007B0590907C05A0907D05B0907E0520E054
:1006100030E040E85FEBC501B4010E94AC278823BD
:1006200031F1C0906B05D0906C05E0906D05F090B5
:100630006E05A7019601C501B4010E9447274B0131
:100640005C0120E030E040E054E3C701B6010E94C5
:10065000FF289B01AC01C501B4010E94FB281816BC
:1006600034F08BEE91E09093560580935505809180
:100670007F05882331F08BEE91E0909356058093AF
:10068000550580916F0590917005A0917105B0910D
:100690007205BC01CD016F5F7F4F8F4F9F4F6093FD
:1006A0006F057093700580937105909372056115C5
:1006B000710581059105A1F40091730510917405F0
:1006C00020917505309176050F5F1F4F2F4F3F4FDB
:1006D0000093730510937405209375053093760588
:1006E000C0907705D0907805E0907905F0907A0574
:1006F0000E944928A70196010E94FF284B015C0136
:1007000060917305709174058091750590917605DF
:100710000E944928A70196010E94FF2820E030E0AE
:1007200040E85FE40E94FF289B01AC01C501B401D1
:100730000E94482760936B0570936C0580936D054C
:1007400090936E050F900F900F900F900F90DF9188
:10075000CF911F910F91FF90EF90DF90CF90BF90BE
:10076000AF909F908F907F906F9008958F929F92FF
:10077000AF92BF92DF92EF92FF920F931F93CF93AE
:10078000DF93E5E5F5E08BE2DF011D928A95E9F75D
:1007900080E090E0A0E8BFEB86A397A3A0A7B1A755
:1007A00087E197EBA1EDB8E382A393A3A4A3B5A33C
:1007B0008CE690EEA6E7BCE184839583A683B7839D
:1007C00080EB9AE9A1EBB6E480879187A287B38793
:1007D0008CE292E3A2E8B2E984879587A687B7877F
:1007E0008EEF9EE4A9E9BEE6808B918BA28BB38B42
:1007F000CCE1D3E0D383C283A2E1B3E0B983A88381
:100800008CE892E011969C938E9313969C938E9312
:10081000129715969C938E93149717969C938E938C
:10082000169719969C938E93189789E695E09D8369
:100830008C8389E595E09B838A838BE695E09F8393
:100840008E8386E1A0E8B5E0ED0119928A95E9F77B
:10085000C6E9D5E08EE3DE011D928A95E9F720E036
:1008600033E082E1D9011D928A95E9F7358B248B1B
:1008700081E190E0F9019183808384E891E09383A2
:10088000828382E691E09583848386E191E0978379
:1008900086838AE091E091878087DD24D394DAAE65
:1008A000812C912C54018394898E9A8EAB8EBC8EB0
:1008B00061E084E03ADDDD8E22E32E8393E39F83C3
:1008C00084E3888785E3898786E38A8787E38B8744
:1008D00088E38C8789E38D8781E38E8730E33F87C8
:1008E000888B898B8A8B2B8B8C8B9D8B1882DBAEB4
:1008F0001D8289829A82AB82BC82E12CF12C870115
:10090000A801970163E070E080E090E0EFDC9F8B4E
:100910008E8B00DDDD821E8EDCAE8F8E98A2A9A2AA
:10092000BAA2DBA21CA2D092D3058DA29EA2AFA236
:10093000B8A6D9A6E6EAF1E080A591A5A2A5B3A53F
:100940008AA79BA7ACA7BDA780A991A9A2A9B3A973
:100950008EA79FA7A8ABB9ABDF91CF911F910F9145
:10096000FF90EF90DF90BF90AF909F908F90089591
:100970008091AE05811103C081E08093AE05809126
:100980009605811103C081E0809396058091B4059E
:10099000811103C081E08093B4058091BA05811173
:1009A00003C081E08093BA050895EF92FF920F9300
:1009B0001F93CF93DF93DC01EA01F90114968D9127
:1009C0009C91159712960D911C911397080F191F62
:1009D0002881398118964D915C91199742175307D8
:1009E00028F04D915C911197452B39F17801E21A6D
:1009F000F30A18964D915C911997481B590B4E0DAF
:100A00005F1D4617570794F1A901460F571F40175E
:100A10005107E0F0F182E082338322836E197F096F
:100A200075836483161617061CF4382F292F02C00D
:100A300030E020E03683278313C018968D919C9177
:100A40001997821B930B8617970784F07183608335
:100A500033832283158214821782168288819981BA
:100A6000680F791F7983688380E001C081E0DF919E
:100A7000CF911F910F91FF90EF900895CF92DF9249
:100A8000EF92FF92CF93DF936B017C0184E48C9D06
:100A9000E0018D9DD00D1124C85DDC4F8AA99BA972
:100AA000009721F00E94602A1BAA1AAA84E48C9D58
:100AB000F0018D9DF00D1124E85DFC4F86A997A9EA
:100AC000009711F00E94602A84E48C9DF0018D9DB6
:100AD000F00D1124E85DFC4F138A128A168A178ADA
:100AE000108E118E128E138E148E158E168E178EFA
:100AF00010A211A281E090E093A382A315A214A2F8
:100B000016A217A210A611A613A612A615A614A621
:100B100016A617A610AA11AA13AA12AA15AA14AAF1
:100B200017AA16AA11AE10AE12AE13AE14AE15AEC1
:100B3000DF01DE961D921D921D921C921397EE5BB3
:100B4000FF4F11821082DF91CF91FF90EF90DF90E5
:100B5000CF9008950F931F93CF93DF93EB01DC01A8
:100B60008D919C91FC01A681B781E881F98123E0F8
:100B7000EE0FFF1F2A95E1F712962D913C911397E6
:100B8000E20FF31F00811181AC85BD859D01220F0D
:100B9000331FDC0112968D919C911397D901A80FF8
:100BA000B91F8D919C9124813581232B19F461E02B
:100BB00070E002C062E070E0689F9001699F300DB4
:100BC000789F300D112488859985289FB001299F31
:100BD000700D389F700D1124EC81FD812E9FC00196
:100BE0002F9F900D3E9F900D1124800F911FFA01B1
:100BF0009183808373836283DF91CF911F910F91E3
:100C000008952F923F924F925F926F927F928F92B0
:100C10009F92AF92BF92CF92DF92EF92FF920F938B
:100C20001F93CF93DF9300D000D000D0CDB7DEB7B5
:100C3000DC011496ED91FC9115970190F081E02D67
:100C4000808591859A838983A281B381BC83AB839C
:100C5000FB0181909190A190B1908F01C12CD12C7A
:100C60007601C814D904EA04FB040CF05FC0D80173
:100C700014964D905D906D907C90179718964D91BD
:100C80005D916D917C911B97F8017096FE83ED83C9
:100C9000F801A081B18183E0AA0FBB1F8A95E1F71B
:100CA000E981FA8182819381A80FB91F2D903C9030
:100CB0001197F80124853585220F331F8B819C8184
:100CC000280F391FF9010081118114968D919C9193
:100CD0001597892B19F481E090E002C082E090E042
:100CE000809F9001819F300D909F300D1124249F93
:100CF0008001259F100D349F100D1124249DC001EB
:100D0000259D900D349D900D1124A8016D817E814B
:100D1000820D931D0E94F82A8D819E81080F191F54
:100D20009FEFC91AD90AE90AF90A9BCF26960FB68E
:100D3000F894DEBF0FBECDBFDF91CF911F910F9111
:100D4000FF90EF90DF90CF90BF90AF909F908F90EB
:100D50007F906F905F904F903F902F900895CF932A
:100D6000DF93DB01AE51BE4F2C91222369F024E4C6
:100D7000269FF001279FF00D1124E85DFC4FEF0145
:100D800019922A95E9F71C9224E4269FF001279FE7
:100D9000F00D1124E85DFC4F148215821682178233
:100DA0001186108613861286118A108A1786168677
:100DB000DF91CF9163CE2F923F924F925F926F92CD
:100DC0007F928F929F92AF92BF92CF92DF92EF92DB
:100DD000FF920F931F93CF93DF93CDB7DEB7289782
:100DE0000FB6F894DEBF0FBECDBF6B017C011A01B8
:100DF00084E48C9D90018D9D300D1124285D3C4F25
:100E0000F90184819581A681B781892B8A2B8B2B4F
:100E100009F4B8C0A12CB12C412C512C32013887D7
:100E20002F83C90104969A838983D9011896BC83BC
:100E3000AB83E981FA8180819181A281B3814816D7
:100E400059066A067B0694F5AB81BC81ED91FC9155
:100E5000EA0DFB1D228133818901812C912C8214A2
:100E60009304C4F4D801ED91FC91309769F084812A
:100E700095812D833E830E94602AF80180819181B3
:100E80000E94602A3E812D81FFEF8F1A9F0A0E5F1C
:100E90001F4FE5CFC9010E94602A8FEF481A580AF8
:100EA000680A780A94E0A90EB11CC3CFAF81B88557
:100EB00018968D919C9119970E94602AEF81F88570
:100EC00082859385892B59F1A12CB12C812C912CF1
:100ED00084E48C9D80018D9D100D11240E5C1C4FAF
:100EE0008214930484F4D801ED91FC91EA0DFB1D6A
:100EF000848195810E94602ABFEF8B1A9B0AEEE0E5
:100F0000AE0EB11CEDCF84E48C9DF0018D9DF00DF3
:100F10001124E85DFC4F828593850E94602A84E459
:100F20008C9D90018D9D300D11248901085D1C4F11
:100F3000D80150968D919C9151970E94602AF8019A
:100F4000868597850E94602AC701B60197DDC70193
:100F5000B60128960FB6F894DEBF0FBECDBFDF9165
:100F6000CF911F910F91FF90EF90DF90CF90BF90A6
:100F7000AF909F908F907F906F905F904F903F9039
:100F80002F90EDCE28960FB6F894DEBF0FBECDBFE2
:100F9000DF91CF911F910F91FF90EF90DF90CF9055
:100FA000BF90AF909F908F907F906F905F904F9089
:100FB0003F902F90089524E4269FF001279FF00D85
:100FC0001124E85DFC4F828993890497029758F4B5
:100FD00085E090E0938B828B8FEF9FEFDC01828F17
:100FE000938FA48FB58F08952F923F924F925F9267
:100FF0006F927F928F929F92AF92BF92CF92DF9229
:10100000EF92FF920F931F93CF93DF93CDB7DEB78D
:10101000E0970FB6F894DEBF0FBECDBF9AA389A3A9
:101020001B016A012801390184E4849D8001859DAA
:10103000100D11249801285D3C4F7901D9014D9282
:101040005D926D927C921397AB01C301B201B3DE46
:10105000F801E45DFC4FD6014D915D916D917D915C
:101060008D01CA01408351836283738364E070E021
:101070000E94B129F70191878087892B09F499C1D2
:101080001E8E1D8E198E1A8E1B8E1C8EF8A2EF8E50
:1010900097012C5F3F4F38A72FA32C5F3F4F3AA7F4
:1010A00029A7EFA1F8A580819181A281B381298D23
:1010B0003A8D4B8D5C8D281739074A075B070CF07A
:1010C000E4C0A9A5BAA58D919C912D8D3E8D280FC8
:1010D000391F3A8B298BD801ED91FC91EE0FFF1F40
:1010E000A9A1BAA18D919C91E80FF91F80819181EE
:1010F000F90191838083D80114962D913D914D91F2
:101100005C9117972BA33CA34DA35EA3085F1F4FD1
:1011100062E070E0C1010E94B129E989FA899383F4
:101120008283892B09F445C11D8A1E8A1F8A188E65
:101130002D893E894F89588D8BA19CA1ADA1BEA15F
:10114000281739074A075B070CF08CC0D801ED90CF
:10115000FC90EE0CFF1CE989FA89C280D380CE0C8A
:10116000DF1C68E070E081E090E00E94B129D601C8
:101170008D939C93E989FA8982819381FC01EE0D1C
:10118000FF1DC080D180C114D10409F412C1D8015F
:1011900014964D915D916D917C911797CA01F6015E
:1011A0004083518362837383085F1F4F64E070E064
:1011B0000E94B129D60115969C938E931497892B82
:1011C00009F4F7C01C8A1B8A812C912C5401F6016A
:1011D00080819181A281B38188169906AA06BB06F7
:1011E000A4F5F601E480F5802B893C89E20EF31E1C
:1011F000F801DE01119680E101900D928A95E1F7E8
:10120000005F1F4FA701BE016F5F7F4FA9A1BAA169
:1012100014968D919C9115979DDCF601268137815E
:10122000D70112968D919C911397820F931F9783EC
:101230008683BFEF8B1A9B0AAB0ABB0A2B893C89BA
:101240002C5F3F4F3C8B2B8BC2CF2D893E894F8922
:10125000588D2F5F3F4F4F4F5F4F2D8B3E8B4F8BE6
:10126000588F66CF298D3A8D4B8D5C8D2F5F3F4F08
:101270004F4F5F4F298F3A8F4B8F5C8F2D8D3E8D57
:101280002C5F3F4F3E8F2D8F0CCF6EE070E0C10181
:101290000E94B129AF8DB8A11B969C938E931A978B
:1012A000812C912CA12CB12CC12CD12C24E4249D77
:1012B000C001259D900D11249C012E5C3C4F3A8B62
:1012C000298B21E030E0A214B3040CF04AC0D8010D
:1012D0004D915D916D917D918D01CA01E989FA89E8
:1012E000E080F180E80CF91C57FD63C0D70111962E
:1012F0003C932E930097A1F02FA738AB4BA75CA788
:101300006DA77EA70E94CB29F701958384832FA523
:1013100038A94BA55CA56DA57EA5892B31F449C0E4
:10132000D70115961C921E921497F701538342839E
:10133000848195819783868391878087138612861F
:1013400081E090E0452B462B472B11F480E090E0A4
:10135000C80ED91EFFEFAF1ABF0A4EE0840E911CD3
:10136000B2CF84E4849D8001859D100D1124085D19
:101370001C4FD8011D961C921E921C97C60133E08B
:10138000880F991F3A95E1F70E94CB29F801918BBC
:10139000808B892B71F0C601880F991F0E94CB2981
:1013A000D8011F969C938E931E97892B11F080E095
:1013B00005C0A101C301B201FEDC81E0E0960FB6D9
:1013C000F894DEBF0FBECDBFDF91CF911F910F917B
:1013D000FF90EF90DF90CF90BF90AF909F908F9055
:1013E0007F906F905F904F903F902F9008952F9235
:1013F0003F924F925F926F927F928F929F92AF92A5
:10140000BF92CF92DF92EF92FF920F931F93CF93F1
:10141000DF93CDB7DEB768970FB6F894DEBF0FBE87
:10142000CDBF9C8B8B8BDB0149015A0124E4289DA5
:10143000C001299D900D11249C01285D3C4F79012C
:101440002D913C911197F701358B248BFC01E25CC7
:10145000FC4F14964D915D916D917C91179740834F
:10146000518362837383FC01EE5BFC4F18964D91B0
:101470005D916D917C911B9740835183628373834F
:10148000FC01EA5BFC4F1C964D915D916D917C9146
:101490001F974083518362837383FC01EA5AFC4F98
:1014A00050965C91509751964C91519752963C9121
:1014B000529753962C9153975083418332832383C1
:1014C0008D010C5E1F4F852F942F181619060CF0F6
:1014D00068C0880F991F880F991F0E94CB29D701D8
:1014E000D3969C938E93D297892B09F4BCC0212C60
:1014F000312C412C512C32019701225D3F4F3E8B04
:101500002D8B2C5F3F4F388F2F8B2E5F3F4F3A8BA9
:10151000298BB301A2012FEF421A520A620A720A02
:10152000ED89FE8980819181A281B3814817590795
:101530006A077B074CF5AF89B88DCD90DC90C20C63
:10154000D31CF801DE01119680E101900D928A957D
:10155000E1F7005F1F4FA601BE016F5F7F4FEB8970
:10156000FC8984819581F6DAA989BA898D919C914B
:101570001197F60122813381820F931F8D939C93E3
:10158000F4E02F0E311CC5CFD701D4968D919C91DC
:10159000D5970E94CB29F70197AB86AB892B09F42D
:1015A00062C0F80180819181A281B38124E4289DE9
:1015B000F001299DF00D1124E85DFC4FAC01BD0147
:1015C0004D7F21E030E0452B462B472B11F020E0EA
:1015D00030E033A322A324E4289DF001299DF00DDF
:1015E0001124E85DFC4F0197A109B10921E030E029
:1015F0000297A105B10510F020E030E035A324A347
:1016000084E4889DF001899DF00D1124CF01825B57
:101610009C4FD80114964D915D916D917C911797D7
:10162000DC014D935D936D937C931397E85DFC4FC4
:10163000868D978DA0A1B1A1B7FF10C0B095A095E0
:10164000909581959F4FAF4FBF4F82AF93AFA4AF9F
:10165000B5AF168E178E10A211A20AC012AE13AE2D
:1016600014AE15AE05C0C501B40108DA81E001C0B1
:1016700080E068960FB6F894DEBF0FBECDBFDF9155
:10168000CF911F910F91FF90EF90DF90CF90BF907F
:10169000AF909F908F907F906F905F904F903F9012
:1016A0002F900895CF92DF92EF92FF92CF93DF9326
:1016B0001092B00324E4269FF001279FF00D11241F
:1016C000E85DFC4F15A614A620E030E0C12CD12C1B
:1016D000DF011A96C1E0D0E0C416D506D4F4ED912E
:1016E000FC911197E20FF31FE280F3801E141F0498
:1016F00054F4E480F580F782E682F186E086138672
:101700001286D183C083EFEFCE1ADE0A225F3F4FED
:10171000E3CF24E4269FF001279FF00D1124E85D1C
:10172000FC4F13A612A611AE10AEDF01DE961D927D
:101730001D921D921C92139782E090E0938B828BF6
:10174000DF91CF91FF90EF90DF90CF90089524E448
:10175000269FF001279FF00D1124E85DFC4F138AAE
:10176000128A29CB24E4269FF001279FF00D112433
:10177000E85DFC4F8289938981309105C8F08530FE
:10178000910518F0059769F008958FEF9FEFDC0140
:10179000828F938FA48FB58F85E090E0938B828B9F
:1017A00008958FEF9FEFDC01828F938FA48FB58F09
:1017B000089524E4249FF001259FF00D1124E85D95
:1017C000FC4F2EE0AC01249FC001259F900D1124F9
:1017D0000284F385E02DE80FF91F81E08093B003C8
:1017E00082859385918780874085518526813781C1
:1017F00081E090E04217530711F080E090E0918380
:10180000808308952F923F924F925F926F927F92C2
:101810008F929F92AF92BF92CF92DF92EF92FF9200
:101820000F931F93CF93DF93CDB7DEB7C255D10986
:101830000FB6F894DEBF0FBECDBF21969FAF8EAF1F
:1018400021974BA75CA76DA77EA74801590184E4A7
:10185000889D8001899D100D1124F801E85DFC4FE1
:101860002285338527963FAF2EAF279782899389AC
:10187000029709F060C186A597A5A0A9B1A9892BF7
:101880008A2B8B2B29F484E090E0938B828B53C1BD
:101890008489958921964EAD5FAD219748175907E8
:1018A00009F049C186A997A99AAB89AB1EAE1DAEB6
:1018B00019AE1AAE1BAE1CAE8F01DF019E962996A3
:1018C000BFAFAEAF2997F2962B96FFAFEEAF2B9737
:1018D0009801285C3F4F2D963FAF2EAF2D97A80162
:1018E0004A5D5F4F2F965FAF4EAF2F97C80182962C
:1018F00061969FAF8EAF61971A976396BFAFAEAFF9
:1019000063972996EEADFFAD299780819181A281E1
:10191000B38129AD3AAD4BAD5CAD281739074A0705
:101920005B070CF0E7C02B96EEADFFAD2B978081E7
:1019300091812DAD3EAD280F391F3EAB2DABD901A6
:1019400012960D90BC91A02D2396BFAFAEAF2397FA
:10195000B695A795B695A7952596BFAFAEAF259737
:101960002D96EEADFFAD2D9780819181892B09F4E5
:1019700096C02F96AEADBFAD2F97CD90DD90ED9078
:10198000FC9029A83AA8F9010190F081E02DF8AB6C
:10199000EFA718AE1FAA8FA998AD2596AEADBFAD23
:1019A00025978A179B070CF07AC06196AEADBFAD44
:1019B00061978D919C91892B69F1EFA5F8A94080E1
:1019C000518062807380A7019601C301B2010E9419
:1019D000FB2887FD0BC0A7019601D1016D917D9178
:1019E0008D919C910E94AC2787FD8CC0A701960128
:1019F000C301B2010E94FB28181664F4A7019601E6
:101A0000F10160817181828193810E94AC278823DA
:101A100009F478C06396AEADBFAD63978D919C918C
:101A2000892B69F1EFA5F8A940805180628073800D
:101A3000A7019601C301B2010E94AC2787FF0BC02A
:101A4000A7019601D1016D917D918D919C910E948C
:101A5000FB2887FF57C0A7019601C301B2010E946E
:101A6000AC2781110CC0A7019601F1016081718141
:101A7000828193810E94FB2818160CF443C02FA981
:101A800038AD2F5F3F4F38AF2FAB34E0230E311C02
:101A90004FA558A94C5F5F4F58AB4FA77CCFEDA91E
:101AA000FEA96081718123964EAD5FAD239789A910
:101AB0009AA90E94F82A25968EAD9FAD2597880F8A
:101AC000991F880F991F29A93AA9280F391F3AABE6
:101AD00029AB89AD9AADABADBCAD0196A11DB11DD1
:101AE00089AF9AAFABAFBCAFADADBEAD1496BEAFD4
:101AF000ADAF07CF81E090E0D801D9969C938E934B
:101B0000D89719C084E4889DF001899DF00D1124B7
:101B1000E85DFC4F868D978DA0A1B1A1892B8A2B02
:101B20008B2B09F064C284E090E0938B828B86ADAE
:101B300097AD93A782A784E4889DF001899DF00D5D
:101B40001124E85DFC4F828993898230910571F4FC
:101B500082AD93ADA4ADB5AD181619061A061B06D5
:101B60000CF04CC2CC24C394D12C05C0049709F0CE
:101B700045C2C12CD12C8EE02196EEADFFAD219750
:101B80008E9F70018F9FF00C112427962EAD3FADD4
:101B90002797E20EF31ED70112964D915C91139791
:101BA0004115510509F42AC216968D919C911797FB
:101BB0009AA789A7FE01319684E1DF011D928A95DB
:101BC000E9F7898A9A8AAB8ABC8AC114D10409F4DC
:101BD00057C084E4889DF001899DF00D1124E85DD3
:101BE000FC4FDF01DE964D905D906D907C9082AD54
:101BF00093ADA4ADB5AD481659066A067B0609F04B
:101C00003FC0F701648175810084F185E02D8481F6
:101C10009581A681B7819C018D8B9E8BAF8BB88FF0
:101C2000285F3F4F3E8B2D8BD70118968D919C914D
:101C30001997280F391F19963C932E9318971896C9
:101C40008D919C911997460F571F841B950B97FDFB
:101C500006C0860F971F19969C938E93189784E45D
:101C6000889DF001899DF00D1124EA59FC4FB1E0E7
:101C70004B1A510861087108408251826282738256
:101C80009E012B5E3F4FAE01475D5F4F64E170E008
:101C9000C7010E94D504082F10E00115110509F0B5
:101CA00091C18CE090E0A0E0B0E08D839E83AF8393
:101CB000B8879E01235E3F4FAE01475D5F4F64E0F2
:101CC00070E0C7010E94D504082F10E0011511052E
:101CD00009F078C180E190E0A0E0B0E08D839E83C0
:101CE000AF83B8874D8D5E8DBE01655D7F4F8F8D53
:101CF00098A10E94F82A8BA19CA1009761F06D8D9C
:101D00007E8DEBE2F0E0EC0FFD1F6E0F7F1F49A10F
:101D10005AA10E94F82A1DA21EA21FA218A621964F
:101D20002EAD3FAD2197220F331F38AF2FAB24E4E8
:101D3000289DC001299D900D1124885D9C4FAC0108
:101D40004C5F5F4F5AAF49AFDC011896BEAFADAFE5
:101D50002DA13EA14FA158A529AB3AAB4BAB5CAB33
:101D6000E9ADFAAD80819181A281B381281739074D
:101D70004A075B070CF0CFC0ADADBEADED91FC9155
:101D800089A99AA9880F991F880F991FE80FF91F31
:101D9000A081B1818C91882309F4AFC0833009F40C
:101DA000ACC00280F381E02D2FA938ADE20FF31F04
:101DB0004081518158AB4FA7452B09F49EC08985BE
:101DC0009A85AB85BC850196A11DB11D89879A872F
:101DD000AB87BC879E01235E3F4FAE01475D5F4FDF
:101DE00064E070E0C7010E94D50490E0009709F01C
:101DF000E8C08D819E81AF81B8850496A11DB11D7B
:101E00008D839E83AF83B8874D8D5E8DBE016B5DE4
:101E10007F4F8F8D98A10E94F82A8BA19CA10097DB
:101E200061F06D8D7E8DA5E2B0E0AC0FBD1F6A0F35
:101E30007B1F49A15AA10E94F82A1EAA1DAA412C63
:101E4000512C3201EFA5F8A980819181A281B38143
:101E5000481659066A067B060CF04FC0EFA5F8A994
:101E6000248035802DA93EA9220E331ED101129661
:101E70006D917C9113979E01235E3F4FAE01475DAC
:101E80005F4FC7010E94D50490E0009709F099C008
:101E9000F10182819381092E000CAA0BBB0B4D81AD
:101EA0005E816F817885840F951FA61FB71F8D8374
:101EB0009E83AF83B887608171814D8D5E8D8F8DDC
:101EC00098A10E94F82A8BA19CA1009759F0D101FA
:101ED0006D917C912D8D3E8D620F731F49A15AA18A
:101EE0000E94F82ABFEF4B1A5B0A6B0A7B0AEDA926
:101EF000FEA93496FEABEDABA5CF49A85AA86BA8B6
:101F00007CA8FFEF4F1A5F0A6F0A7F0A4DA25EA2FC
:101F10006FA278A61DCF89859A85AB85BC85892B54
:101F20008A2B8B2B09F44EC08AE190E0A0E0B0E050
:101F300089839A83AB83BC8321962EAD3FAD2197D5
:101F4000C901330FAA0BBB0B8D879E87AF87B88B58
:101F50004D895E89BE016F5F7F4F8F89988D0E948A
:101F6000F82A8B8D9C8D009761F06D897E8941E008
:101F700050E04C0F5D1F640F751F498D5A8D0E94F4
:101F8000F82A89A59AA5D70117969C938E93169740
:101F900011961C921E92CD2889F184E4889DF0014F
:101FA000899DF00D1124EA59FC4F80819181A28115
:101FB000B3810196A11DB11D80839183A283B38358
:101FC0001DC08C01CD28D1F4012BC1F084E4889D83
:101FD000F001899DF00D1124E85DFC4F81E090E057
:101FE00095A784A785E090E0938B828B07C083E060
:101FF00090E0938B828B81E090E09BCDCE5ADF4FB7
:102000000FB6F894DEBF0FBECDBFDF91CF911F9109
:102010000F91FF90EF90DF90CF90BF90AF909F9087
:102020008F907F906F905F904F903F902F9008958A
:10203000CF92DF92EF92FF920F931F936B017C017F
:1020400084E48C9DF0018D9DF00D1124E85DFC4F22
:1020500082899389009709F450C00197B9F482A549
:1020600093A59C012F5F3F4F33A722A7092E000C99
:10207000AA0BBB0B028D138D248D358D8017910714
:10208000A207B307D1F5C701B6010CDB84E48C9D30
:10209000F0018D9DF00D1124E85DFC4F828993893C
:1020A000039759F582A593A59C012F5F3F4F33A756
:1020B00022A7092E000CAA0BBB0B468D578D60A1E1
:1020C00071A184179507A607B707BCF086AD97AD39
:1020D00093A782A784E090E0938B828B82AD93AD2F
:1020E000A4ADB5AD181619061A061B0634F4EE5B3E
:1020F000FF4F81E090E0918380831F910F91FF90CB
:10210000EF90DF90CF90089524E4269FF001279F61
:10211000F00D1124E85DFC4F828993890497B1F496
:1021200082A593A5019693A782A7092E000CAA0B5E
:10213000BB0B46895789608D718D84179507A6075B
:10214000B70721F485E090E0938B828B08952F925E
:102150003F924F925F926F927F928F929F92AF9237
:10216000BF92CF92DF92EF92FF920F931F93CF9384
:10217000DF93CDB7DEB72E970FB6F894DEBF0FBE54
:10218000CDBF49835A836B837C834901442E552EEE
:1021900024E4249DF001259DF00D1124E85DFC4F01
:1021A0002288338891012450310915861486223003
:1021B000310508F0DDC0DC0111961C921E921396C9
:1021C0001C921E921297A12CB12C60E070E09F012E
:1021D000265F3F4F38872F837F013CE0E30EF11CE1
:1021E000DF015096BA87A9879F01225F3F4F3C8746
:1021F0002B87681579050CF06FC0EF81F885A081F9
:10220000B1819D012A0D3B1D3E872D87D9012D915E
:102210003C911197232B09F059C018960D911C91F0
:1022200019971296ED91FC911397FE83ED83169604
:102230002D913C911797D7014D915C91DA01E3E024
:10224000AA0FBB1FEA95E1F7E985FA85C080D18026
:10225000FD01EC0DFD1D440F551FAB85BC85CD90D8
:10226000DC904C0D5D1DDA016D937C93D7014D918F
:102270005C9111974F5F5F4F4D935C931383028383
:10228000AD85BE851B963C932E931A9702171307B4
:1022900048F4201B310B318320831582148217826E
:1022A000168214C0AD85BE851496CD90DC9015972E
:1022B0004D815E814C0D5D1D401B510B5183408350
:1022C0002C193D0935832483D782C6826F5F7F4FE7
:1022D000BEE0AB0EB11C8DCF24E4249D8001259D72
:1022E000100D1124085D1C4FF80124853585DC0193
:1022F00011963C932E934089518913965C934E938B
:1023000012974685578515965C934E931497232B09
:10231000A1F5B5E02B16310481F51092B003828D42
:10232000938DA48DB58DAE014F5F5F4F64E070E07B
:102330008F3F9F4FAF4FBF4F59F480E290E00E9414
:10234000551B69817A818B819C81A40100DA15C0BB
:102350008FE190E00E94551BD8019B961C921E9223
:102360009A9781E090E053969C938E93529705C084
:10237000FC0111821082138212822E960FB6F894FD
:10238000DEBF0FBECDBFDF91CF911F910F91FF90A8
:10239000EF90DF90CF90BF90AF909F908F907F9005
:1023A0006F905F904F903F902F900895EF92FF9223
:1023B0000F931F93CF93DF937C018B01EA010E945F
:1023C000D81B811121C08091E4019091E50104970F
:1023D00011F183E090E09093E5018093E4011BC04C
:1023E00098819111F0CF28ED38EB45E050E060E0A6
:1023F00070E0CB010E94621EAE01B801C7010E94CD
:10240000701EC8010E943B1E8091B1039091B203DF
:10241000892B31F3D8CFDF91CF911F910F91FF908E
:10242000EF900895CF93DF932091E4013091E5017F
:102430002430310541F0EB010E94701ECE01DF9186
:10244000CF910C943B1EDF91CF9108950C94842280
:102450000C9479220C9467220C944B1E0C940A2243
:10246000089560E070E080E090E00C94B31B089564
:10247000AF92BF92CF92DF92EF92FF920F931F9392
:10248000CF93DF9300D0CDB7DEB75C0169017A014D
:102490008B0180E090E0C114D104E104F104F1F07B
:1024A000C114D10421E0E206F10410F4A60102C037
:1024B0004FEF5FEF9E012F5F3F4FB801C5010E94B4
:1024C00024238F3F2FEF920749F029813A81C21AC6
:1024D000D30AE108F108020F131FDDCF0F900F9010
:1024E000DF91CF911F910F91FF90EF90DF90CF90F0
:1024F000BF90AF900895089508951F920F920FB660
:102500000F9211242F933F934F935F936F937F9379
:102510008F939F93AF93BF93EF93FF93E091E60167
:10252000F091E7010995FF91EF91BF91AF919F91D4
:102530008F917F916F915F914F913F912F910F906C
:102540000FBE0F901F9018951F920F920FB60F920B
:1025500011242F933F934F935F936F937F938F93A8
:102560009F93AF93BF93EF93FF93E091E801F091B6
:10257000E9010995FF91EF91BF91AF919F918F91E3
:102580007F916F915F914F913F912F910F900FBE6F
:102590000F901F9018951F920F920FB60F92112453
:1025A0002F933F938F939F93AF93BF938091B403E7
:1025B0009091B503A091B603B091B7033091B303E6
:1025C00023E0230F2D3720F40196A11DB11D05C076
:1025D00026E8230F0296A11DB11D2093B30380931B
:1025E000B4039093B503A093B603B093B70380915F
:1025F000B8039091B903A091BA03B091BB030196BF
:10260000A11DB11D8093B8039093B903A093BA03A1
:10261000B093BB03BF91AF919F918F913F912F9149
:102620000F900FBE0F901F9018953FB7F8948091B0
:10263000B8039091B903A091BA03B091BB0326B53A
:10264000A89B05C02F3F19F00196A11DB11D3FBFEA
:10265000BA2FA92F982F8827820F911DA11DB11D78
:10266000BC01CD0142E0660F771F881F991F4A9574
:10267000D1F708958F929F92AF92BF92CF92DF923F
:10268000EF92FF926B017C01D0DF4B015C01C11422
:10269000D104E104F104F1F02EDFC7DFDC01CB014E
:1026A00088199909AA09BB09883E9340A105B1057B
:1026B00070F321E0C21AD108E108F10888EE880E13
:1026C00083E0981EA11CB11CC114D104E104F104E3
:1026D00021F7DDCFFF90EF90DF90CF90BF90AF90CC
:1026E0009F908F900895789484B5826084BD84B55E
:1026F000816084BD85B5826085BD85B5816085BDFD
:10270000EEE6F0E0808181608083E1E8F0E0108215
:10271000808182608083808181608083E0E8F0E056
:10272000808181608083E1EBF0E080818460808340
:10273000E0EBF0E0808181608083EAE7F0E0808177
:1027400084608083808182608083808181608083D7
:102750008081806880831092C10008951F93CF9379
:10276000DF93182FEB0161E07FD0209711F460E038
:1027700004C0CF3FD10531F461E0812FDF91CF91CB
:102780001F91AEC0E12FF0E0E857FF4FE491E33036
:10279000F9F048F4E130B9F0E230A1F584B5806297
:1027A00084BDC8BD34C0E730E9F0E83019F1E43049
:1027B00049F580918000806280938000D0938B00E7
:1027C000C0938A0024C084B5806884BDC7BD1FC083
:1027D00080918000806880938000D0938900C093AE
:1027E000880015C08091B00080688093B000C093CD
:1027F000B3000DC08091B00080628093B000C093A0
:10280000B40005C0C038D1050CF0B6CFB0CFDF9111
:10281000CF911F910895833081F028F4813099F091
:102820008230A1F008958730A9F08830B9F0843063
:10283000D1F4809180008F7D03C0809180008F77DC
:1028400080938000089584B58F7702C084B58F7D12
:1028500084BD08958091B0008F7703C08091B0004F
:102860008F7D8093B0000895CF93DF9390E0FC01BB
:10287000E456FF4F2491FC01E055FF4F84918823DB
:1028800061F190E0880F991FFC01E253FF4FC59161
:10289000D491FC01EC53FF4FA591B491611109C093
:1028A0009FB7F8948881209582238883EC912E230A
:1028B0000BC0623061F49FB7F8943881822F809505
:1028C00083238883EC912E2B2C939FBF06C08FB758
:1028D000F894E8812E2B28838FBFDF91CF91089544
:1028E0001F93CF93DF93282F30E0F901E857FF4F74
:1028F0008491F901E456FF4FD491F901E055FF4F5F
:10290000C491CC23C1F0162F811185DFEC2FF0E0AC
:10291000EE0FFF1FEC53FF4FA591B4918FB7F894C2
:10292000111105C09C91ED2FE095E92302C0EC91B7
:10293000ED2BEC938FBFDF91CF911F910895FC0198
:10294000918D228D892F90E0805C9F4F821B910991
:102950008F7399270895FC01918D828D981731F01E
:10296000828DE80FF11D858D90E008958FEF9FEF28
:102970000895FC01918D828D981761F0828DDF01A1
:10298000A80FB11D5D968C91928D9F5F9F73928F62
:1029900090E008958FEF9FEF0895FC01848DDF0193
:1029A000A80FB11DA35ABF4F2C91848D90E00196C2
:1029B0008F739927848FA689B7892C93A089B189B1
:1029C0008C9180648C93938D848D981306C00288BB
:1029D000F389E02D80818F7D80830895CF93DF93ED
:1029E000EC01888D8823C1F0EA89FB89808185FD0F
:1029F00005C0A889B9898C9186FD0EC00FB607FC69
:102A0000F5CF808185FFF2CFA889B9898C9185FFA8
:102A1000EDCFCE01C2DFE8CFDF91CF910895EF92E5
:102A2000FF920F931F93CF93DF93EC0181E0888F88
:102A30009B8D8C8D981305C0E889F989808185FD6F
:102A400023C0F62E0B8D10E00F5F1F4F0F73112761
:102A5000E02E8C8DE8120BC00FB607FCFACFE88988
:102A6000F989808185FFF5CFCE0197DFF2CF8B8D7D
:102A7000FE01E80FF11DE35AFF4FF0820B8FEA8948
:102A8000FB898081806207C0EE89FF896083E889C5
:102A9000F98980818064808381E090E0DF91CF912B
:102AA0001F910F91FF90EF900895CF92DF92EF92D8
:102AB000FF921F93CF93DF93EC016A017B01122FEA
:102AC000E889F98982E080834115514E61057105DD
:102AD000B1F060E079E08DE390E0A70196010E94FB
:102AE0007529DA01C9010197A109B109B695A79520
:102AF00097958795AC01411580E15807A8F0E889C2
:102B0000F989108260E874E88EE190E0A7019601EF
:102B10000E947529BA01A901415051096109710941
:102B20007695679557954795EC85FD855083EE859D
:102B3000FF854083188EEC89FD891083EA89FB8923
:102B4000808180618083EA89FB89808188608083BD
:102B5000EA89FB89808180688083EA89FB8980819A
:102B60008F7D8083DF91CF911F91FF90EF90DF9059
:102B7000CF9008951F920F920FB60F9211242F93AA
:102B80008F939F93EF93FF93E091CC03F091CD034C
:102B90008081E091D203F091D30382FD12C0908135
:102BA0008091D5038F5F8F732091D603821751F0E8
:102BB000E091D503F0E0E454FC4F958F8093D5036A
:102BC00001C08081FF91EF919F918F912F910F9084
:102BD0000FBE0F901F9018951F920F920FB60F9275
:102BE00011242F933F934F935F936F937F938F9312
:102BF0009F93AF93BF93EF93FF938CEB93E0CDDE66
:102C0000FF91EF91BF91AF919F918F917F916F91C4
:102C10005F914F913F912F910F900FBE0F901F909A
:102C20001895ECEBF3E01382128288EE93E0A0E0BB
:102C3000B0E084839583A683B78383E992E0918390
:102C4000808385EC90E09587848784EC90E097877B
:102C5000868780EC90E0918B808B81EC90E0938B69
:102C6000828B82EC90E0958B848B86EC90E0978B46
:102C7000868B118E128E138E148E08958F929F92D2
:102C8000AF92BF92CF92DF92EF92FF920F931F937A
:102C9000CF93DF937C018B016C0182E0C80ED11CC5
:102CA0004701E5E08E0E911CC0E0D0E0F601619195
:102CB0006F014AE050E0C801C6D05C016EE2C80175
:102CC00067D08A0D9B1DC80FD91FC814D90471F78E
:102CD0004AE050E0F7016581C801B5D08C0F9D1F17
:102CE000DF91CF911F910F91FF90EF90DF90CF90E8
:102CF000BF90AF909F908F900895E9E5F4E083EA4C
:102D000092E0918380831282138214821582089547
:102D1000CF92DF92EF92FF920F931F93CF93DF93A7
:102D20006C017A018B01C0E0D0E0CE15DF0589F09F
:102D3000D8016D918D01D601ED91FC910190F0814A
:102D4000E02DC6010995892B11F47E0102C0219660
:102D5000ECCFC701DF91CF911F910F91FF90EF90C2
:102D6000DF90CF9008956115710579F0FB01019016
:102D70000020E9F73197AF01461B570BDC01ED91BD
:102D8000FC910280F381E02D099480E090E00895A9
:102D9000DC01ED91FC910190F081E02D09944F92BE
:102DA0005F926F927F92EF92FF920F931F93CF9358
:102DB000DF93CDB7DEB7A1970FB6F894DEBF0FBE95
:102DC000CDBF7C01FA01CB0119A2223008F42AE020
:102DD0008E010F5D1F4F422E512C612C712CBF01B3
:102DE000A30192010E947529F901CA01015011093C
:102DF0006A3014F4605D01C0695CD8016C93232BC8
:102E0000242B252B61F7B801C701ADDFA1960FB6C2
:102E1000F894DEBF0FBECDBFDF91CF911F910F9110
:102E2000FF90EF907F906F905F904F9008952115E5
:102E3000310541F4DC01ED91FC910190F081E02D30
:102E4000642F0994ACCF9A01462F50E060E070E007
:102E5000EECF813039F018F0823051F008951092A1
:102E60006E00089580916F008D7F80936F000895AC
:102E7000809170008D7F8093700081E08093B0001E
:102E80008091B100887F84608093B1001092B3007C
:102E90000895CF93C82F8091EA018C1307C0E8ED05
:102EA000F0E0E4918FEF8093EA0101C0EFEF8E2F05
:102EB000D0DF60E08C2FCF9113CD1F920F920FB611
:102EC0000F9211242F933F934F935F936F937F93B0
:102ED0008F939F93AF93BF93EF93FF93809162047F
:102EE00090916304A0916404B0916504892B8A2BAE
:102EF0008B2B51F180915F04E0916004F0916104AB
:102F00009081892780838091620490916304A091CD
:102F10006404B0916504181619061A061B06BCF461
:102F20008091620490916304A0916404B09165045F
:102F30000197A109B1098093620490936304A0935F
:102F40006404B093650403C08091EA01A2DFFF919D
:102F5000EF91BF91AF919F918F917F916F915F9111
:102F60004F913F912F910F900FBE0F901F9018958A
:102F700040E855E260E070E080E090E002D00C9420
:102F8000190126E08CEB93E090CD1F920F920FB6C3
:102F90000F9211242F933F934F935F936F937F93DF
:102FA0008F939F93AF93BF93EF93FF9387EE9FEF22
:102FB00090938500809384000E949F26FF91EF915B
:102FC000BF91AF919F918F917F916F915F914F9141
:102FD0003F912F910F900FBE0F901F90189587EE85
:102FE0009FEF9093850080938400AFE6B0E08C91D2
:102FF0008E7F8C93E0E8F0E080818C7F8083E1E835
:10300000F0E08081877E80838081836080838081FF
:103010008B7F80838C9181608C93089581E00895EB
:103020006F927F928F929F92AF92BF92CF92DF92D8
:10303000EF92FF920F931F93CF93DF935C017B017D
:103040004A0101E010E00E151F0564F568018FEFDD
:10305000C81AD80AE801CC0FDD1FC80DD91D688039
:10306000798061147104E1F065EA72E0C3010E94A5
:10307000082B892B19F41982188212C068EA72E0B1
:10308000C3010E94082B892B59F4CE14DF0441F0B0
:103090006801E2E0CE0ED11C198218821B821A82CE
:1030A0008601D1CF81E0F5018083B401C7010E9480
:1030B000AF22F5019283818380E090E0DF91CF9190
:1030C0001F910F91FF90EF90DF90CF90BF90AF9046
:1030D0009F908F907F906F90089586E694E008957A
:1030E00080E008950F931F93CF93DF938B01BA0174
:1030F000E901198218829801012E000C440B550B2E
:10310000FC0181819281B4D9019621F01983088351
:1031100080E001C081E0DF91CF911F910F91089570
:103120000F931F93CF93DF9300D0CDB7DEB7FB0192
:103130008A01B9019E012F5F3F4FAF01FC018181E0
:1031400092810E94C622019639F089819A81F80104
:103150009183808380E001C081E00F900F90DF9128
:10316000CF911F910F910895FC01808108950895DA
:10317000089581E0FB01808380E008950895109216
:1031800090040895FC01818192810C94A622CF9332
:10319000DF93CDB7DEB72A970FB6F894DEBF0FBE28
:1031A000CDBFAC01CB0160E070E049835A836B83F3
:1031B0007C83092E000CAA0BBB0B8D839E83AF83EF
:1031C000B8879E01275F3F4FAE014F5F5F4F68E0BA
:1031D00070E080917F049091800484DF811108C0A9
:1031E00081E029853A852830310519F480E001C055
:1031F00081E02A960FB6F894DEBF0FBECDBFDF91F7
:10320000CF9108950F931F93CF93DF9300D0CDB745
:10321000DEB78B019E012F5F3F4FAC0180917F0491
:10322000909180045FDF811108C081E029813A819B
:103230002017310719F480E001C081E00F900F9052
:10324000DF91CF911F910F910895CF93DF93EC0100
:10325000109283041092820410928F0410928E04B4
:10326000AC0160E070E0CB010E94A70BAE0161E011
:1032700070E080E090E00E94A70B80917F04909125
:103280008004DF91CF917ACF4F925F926F927F92BD
:103290008F929F92AF92BF92CF92DF92EF92FF9266
:1032A0000F931F93CF93DF9300D0CDB7DEB79C0170
:1032B0006C0197FF03C087E0C80ED11C43E0D59492
:1032C000C7944A95E1F7C90168E070E00E9462295D
:1032D0007C0189010E5F1F4F80917D0490917E04D7
:1032E000801791070CF0DCC080917B0490917C04E6
:1032F000009731F00E94602A10927E0410927D04A3
:10330000C8010E94CB2990937C0480937B04892B75
:1033100029F010937E0400937D04C2C0A12CB12C2F
:10332000AC14BD040CF05EC0412C512C320100E005
:1033300010E098012C573B4FAE014F5F5F4F61E0AB
:1033400070E080917F0490918004EADE811198C141
:1033500089819A812FEF421A520A620A720A20E981
:1033600042162FE5520621E0620671043CF060919E
:103370008E0470918F048DEE90E02DC0080F191F00
:103380000A30110551F549E050E060E070E084E852
:1033900094E00E94502360918E0470918F048823E2
:1033A000C1F080918C0490E06817790709F0B8CFDC
:1033B0008EEE90E0ECDE80918E0490918F04019669
:1033C000992790938F0480938E048FEFA81AB80AE0
:1033D000A7CF8FEE90E0DBDEA7CF0A3011050CF40B
:1033E000A8CF9ECFEF2809F44BC1C12CD12C760178
:1033F00000E010E098012C573B4FAE014F5F5F4F4C
:1034000061E070E080917F049091800489DE8111F9
:1034100037C189819A812FEFC21AD20AE20AF20AD1
:1034200020E9C2162FE5D20621E0E206F1043CF0C5
:1034300060918E0470918F048DEE90E02AC0080F89
:10344000191F0A30110539F549E050E060E070E0DD
:1034500084E894E00E94502360918E0470918F0460
:103460008823A9F080918C0490E06817790709F00F
:1034700007C18EEE90E08BDE80918E0490918F04D8
:103480000196992790938F0480938E04F9C08FEE54
:1034900090E07DDEAACF0A3011050CF4ABCFF0C06E
:1034A00000E010E00C151D050CF077C0412C512CEC
:1034B0003201A12CB12C480193E0880C991C9A95FB
:1034C000E1F720917B0430917C04C4018A0D9B1D9F
:1034D000280F391FAE014F5F5F4F61E070E08091B0
:1034E0007F04909180041CDE8111CAC089819A8179
:1034F0002FEF421A520A620A720A20E942162FE599
:10350000520621E0620671043CF060918E047091D5
:103510008F048DEE90E034C0A80EB91E8AE0A81684
:10352000B104A9F549E050E0B40180917B04909189
:103530007C040E94502360918E0470918F04882334
:10354000E9F080917B0490917C04FC01E80DF91D69
:10355000808590E06817790709F0A4CF8EEE90E09F
:1035600016DE80918E0490918F0401969927909396
:103570008F0480938E040F5F1F4F94CF8FEE90E0E7
:1035800006DE412C512C3201A12CB12C9ACF2AE01D
:10359000A216B1040CF495CF85CFE114F10409F41F
:1035A0006AC0680183E0CC0CDD1C8A95E1F7812CB0
:1035B000912C540100E010E098012C573B4FAE01D4
:1035C0004F5F5F4F61E070E080917F0490918004D5
:1035D000A7DD811155C089819A812FEF821A920A45
:1035E000A20AB20A20E982162FE5920621E0A2067D
:1035F000B1043CF060918E0470918F048DEE90E0E8
:1036000034C0080F191F0A30110589F549E050E050
:1036100060E070E084E894E00E94502360918E04A2
:1036200070918F048823F9F080918C0490E06817E2
:10363000790709F58EEE90E0AADD80917B049091E8
:103640007C04A70164E874E08C0D9D1D0E94F82A9B
:1036500080918E0490918F040196992790938F0406
:1036600080938E0408C08FEE90E091DDA0CF0A30E9
:1036700011050CF4A1CF80917B0490917C0402C0D1
:1036800080E090E00F900F90DF91CF911F910F910C
:10369000FF90EF90DF90CF90BF90AF909F908F9072
:1036A0007F906F905F904F900895CF92DF92EF924E
:1036B000FF920F931F93CF93DF931F92CDB7DEB787
:1036C0006C017B018A01452B31F0AB0160E070E0B9
:1036D000C801E2D78983B701C60159DD81110DC048
:1036E0000115110551F0B701C8018CDD811105C02C
:1036F00061E070E0CE01019685DD0F90DF91CF9102
:103700001F910F91FF90EF90DF90CF900895CF928F
:10371000DF92EF92FF92CF93DF93CDB7DEB728977A
:103720000FB6F894DEBF0FBECDBF6B01E12CF12CBC
:10373000C982DA82EB82FC822D833E834F835887D5
:10374000AE014F5F5F4F68E070E0AFDF28960FB6C5
:10375000F894DEBF0FBECDBFDF91CF91FF90EF9009
:10376000DF90CF9008950F931F93CF93DF93EC01D9
:103770008B01B3DC9093800480937F04009739F031
:10378000A801BE014DDCEC01892B19F40BC0C4EB80
:10379000D2E080917F0490918004E9DC1092800453
:1037A00010927F04CE01DF91CF911F910F91089568
:1037B00080917F0490918004D7CC2F923F924F92BA
:1037C0005F926F927F928F929F92AF92BF92CF92B1
:1037D000DF92EF92FF920F931F93CF93DF93CDB7BA
:1037E000DEB769970FB6F894DEBF0FBECDBF20914C
:1037F0008304222309F426C25D8B4C8B688B798B62
:103800008A8B9B8B9A01AB01BC01CE0101960E9471
:10381000A71010E038E0232E312C89819A811816E8
:1038200019060CF00AC21F861E861D861C86898119
:103830009A81AC85BD85A817B9070CF0F3C1EB815F
:10384000FC812E853F85E20FF31F2081318130936B
:103850007A042093790484819581909378048093ED
:1038600077044281538150937604409375044681D6
:1038700057815093740440937304820F931F9C01EB
:10388000990F440B550B2E8B3F8B488F598FC12CB2
:10389000D12C76012E893F89488D598DC216D306C9
:1038A000E406F50608F0A2C11F82609179047091C8
:1038B0007A048B01072E000C220B330BD701C601B3
:1038C0000496A11DB11D80179107A207B30728F424
:1038D000E0917504F09176040AC0E4E0F0E0E61BA4
:1038E000F70BEC0DFD1D8091730490917404E80FAB
:1038F000F91F4080512C612C712CD701C60105960F
:10390000A11DB11D80179107A207B30728F4E0910C
:103910007504F09176040AC0E5E0F0E0E61BF70BD1
:10392000EC0DFD1D8091730490917404E80FF91F54
:103930008081582AD701C6010696A11DB11D8017A6
:103940009107A207B30728F4E0917504F09176047B
:103950000AC0E6E0F0E0E61BF70BEC0DFD1D8091E0
:10396000730490917404E80FF91F8081682AD701CD
:10397000C6010796A11DB11D80179107A207B307C5
:1039800028F4E0917504F09176040AC0E7E0F0E0D5
:10399000E61BF70BEC0DFD1D8091730490917404F0
:1039A000E80FF91F8081782A4601570148E0840E0C
:1039B000911CA11CB11C081519052A053B0508F42A
:1039C000B4C0C016D106E206F30638F4809175043F
:1039D000909176048C0D9D1D09C0C601861B970B26
:1039E0002091730430917404820F931F68E070E09B
:1039F00009DCE0917904F0917A049F010F2E000C0C
:103A0000440B550BD301C201880D991DAA1DBB1D86
:103A1000281739074A075B07C8F082169306A406E1
:103A2000B50638F42091750430917604C6010896E5
:103A300009C0C1018E1B9F0B8C0D9D1D209173042D
:103A400030917404820F931FB20199C08601BF01A7
:103A5000685071096C197D0982169306A406B50693
:103A600038F42091750430917604C601089609C097
:103A7000C1018E1B9F0B8C0D9D1D209173043091F5
:103A80007404820F931FBEDB8091790490917A04B5
:103A9000B101681B790B600F711F640D751D80915A
:103AA000730490917404AEDB8091790490917A0450
:103AB000AC0148505109FA01E01BF10BAC01092E91
:103AC000000C660B770B84169506A606B70638F42D
:103AD0002091750430917604C60108960AC09101C0
:103AE000281B390BC9018C0D9D1D20917304309149
:103AF0007404820F931FAF0160E070E0CDD58F8317
:103B00002091790430917A04A101421B530B9A0150
:103B1000200F311F240D351D40E050E0682F8091AB
:103B2000730490917404A4D550C0C016D106E20667
:103B3000F306C8F46C197D098091750490917604A0
:103B40008C0D9D1D5FDB8091790490917A04B10109
:103B5000681B790B6C0D7D1D640D751D80917304C0
:103B6000909174040CC0C601861B970B20917304BE
:103B700030917404B201685F7F4F820F931F42DB64
:103B80008091790490917A04AC01092E000C660BA7
:103B9000770B84169506A606B70638F420917504AF
:103BA00030917604C60108960AC0D101A81BB90B52
:103BB000CD018C0D9D1D2091730430917404820FF2
:103BC000931FA20160E070E067D58F8361E070E031
:103BD000CE01079617DB182FB8E04B0E511C611C65
:103BE000711CC40CD51CE61CF71C54CE8C859D851D
:103BF000880F991FED81FE81E80FF91F48895989C7
:103C00006A897B89808191810E94D90B4C855D8571
:103C10004F5F5F4F5D874C878E859F8508969F8796
:103C20008E8705CE2C893D89488959896A897B8987
:103C3000CE0101960E94A710F0CD112319F08C89B6
:103C40009D8903DB69960FB6F894DEBF0FBECDBF2A
:103C5000DF91CF911F910F91FF90EF90DF90CF9068
:103C6000BF90AF909F908F907F906F905F904F909C
:103C70003F902F900895CF93DF93EC01AC0160E06B
:103C800070E0CB019ADDAE0161E070E080E090E091
:103C9000DF91CF9192CDCF9380917F04909180045A
:103CA0001FDAC82F81110BC060E070E0CB010E94C9
:103CB000AF0661E070E080E090E00E94AF068C2FDC
:103CC000CF9108950F931F9389019A01AB01BC0115
:103CD00080917F04909180044BDA1F910F91089599
:103CE0003F924F925F926F927F928F929F92AF928C
:103CF000BF92CF92DF92EF92FF920F931F93CF93D9
:103D0000DF93CDB7DEB767970FB6F894DEBF0FBE6F
:103D1000CDBF6C017B015A0180918304882331F06F
:103D200080918304882309F45DC30AC063E874E0CA
:103D300080917F04909180041CDA811153C3F0CFED
:103D4000809182041A821982882309F46AC0E0E90A
:103D50004E2EEFE55E2E66246394712C00E010E099
:103D6000980127593B4FAE014F5F5F4F61E070E014
:103D700080917F0490918004D3D9982E81114DC0F9
:103D800089819A81080F191F0115110509F445C091
:103D900081E0481A51086108710839F460918E0475
:103DA00070918F048DEE90E030C00A30110589F5D6
:103DB00049E050E060E070E089E694E071D4609101
:103DC0008E0470918F048823F1F08091710490E04B
:103DD00068177907D9F48EEE90E0D9D988E0E9E642
:103DE000F4E0DE01199601900D928A95E1F7209199
:103DF0008E0430918F042F5F3F4F332730938F0411
:103E000020938E040AC08FEE90E0C1D91A821982E5
:103E100004C00A3011050CF4A3CF81E029813A8156
:103E200024C000E010E078E0672E712C29E030E03B
:103E30002C0F3D1F200F311FAE014F5F5F4FB301AD
:103E4000601B710B80917F049091800469D9982E3A
:103E500029813A81811108C0020F131F0115110534
:103E600019F00830110514F381E0121613060CF056
:103E700080E09110B4C2882309F4B4C28091820416
:103E8000811104C019861A861B861C8689859A852D
:103E9000AB85BC858031910508F0A4C2FC01EC5CC7
:103EA000FF4F0C949729D6011696ED91FC91179728
:103EB00080819181A281B38189839A83AB83BC8302
:103EC000AE014F5F5F4F64E070E085E190E07FC13D
:103ED0008D859E85D9D9009731F42FEF3FEFA90149
:103EE00061E070E00EC0FC0180809180A280B38010
:103EF000A701C501B4010E94520BA501940160E025
:103F000070E08DE190E069C28D859E85BDD90097F6
:103F100021F42FEF3FEFA90110C0DC018D909D909F
:103F2000AD90BD90AD0195018401B701C6010E941D
:103F3000F407A5019401882319F061E070E002C044
:103F400060E070E08BE190E048C28D859E859CD951
:103F5000009721F42FEF3FEFA9010FC0FC018190E2
:103F60009190A190B190BF01A5019401C6010E945A
:103F7000F709A5019401882319F061E070E002C0FF
:103F800060E070E08CE190E028C2D6011496ED91DB
:103F9000FC91159700811181F80182809380A080A7
:103FA000B18060E1462E512C612C712C49825A82DD
:103FB0006B827C8288E090E0A0E0B0E08D839E83FD
:103FC000AF83B8879E012F5E3F4FAE014F5F5F4FBB
:103FD00068E070E080917F049091800483D888230A
:103FE00019F000E010E0BBC089899A890897C9F7E9
:103FF000D801ED90FC90B8E0EB0EF11CEE0CFF1C2C
:10400000EE0CFF1CC7010E94CB298C01892B49F3C0
:1040100049825A826B827C82C7010F2C000CAA0B4A
:10402000BB0B8D839E83AF83B8879E012F5E3F4F6E
:10403000AE014F5F5F4F68E070E080917F04909128
:10404000800450D881118BC089899A89089709F01A
:1040500086C0D6011296ED91FC9113974081518153
:1040600062817381D8014D935D936D937C93139717
:10407000448155816681778114964D935D936D934C
:104080007C931797408551856285738518964D936B
:104090005D936D937C931B9784859585A685B785E5
:1040A000F80184879587A687B787108A118A128AB4
:1040B000138A84E090E0A0E0B0E0848B958BA68B1F
:1040C000B78B8091E4019091E501A0E0B0E0808F92
:1040D000918FA28FB38FC5010B2C000CAA0BBB0BC9
:1040E000848F958FA68FB78FF401D801909680E0CA
:1040F00090E08A159B0554F44191519160E070E085
:104100004D935D936D937D930196F3CF9E012F5E4A
:104110003F4FA801B70180917F04909180040E94D5
:10412000721881111CC089899A898E159F05B9F46E
:10413000A70160E070E0C801AFD28B8B9E012F5EBB
:104140003F4FAE014D5E5F4F61E070E080917F04B4
:10415000909180040E94721881E080938204C801CB
:1041600067960FB6F894DEBF0FBECDBFDF91CF913B
:104170001F910F91FF90EF90DF90CF90BF90AF9085
:104180009F908F907F906F905F904F903F900C9496
:10419000602A8D859E85AF85B8890097A105B105F8
:1041A00021F481E0809381041DC16ED8009789F4C9
:1041B00081E090E0A0E0B0E089839A83AB83BC8388
:1041C000AE014F5F5F4F64E070E082E190E06DDA36
:1041D00009C1BC01C6010E94010619821A821B8214
:1041E0001C82AE014F5F5F4F64E070E082E190E0BF
:1041F0005CDA8111F7C0D5CFD6011496ED91FC9110
:1042000015970190F081E02D008511858FEF89834E
:104210000115110509F472C0D8016D907C90A2803F
:10422000B38020E030E060E070E080E090E0861550
:1042300097050CF5F801A281B381A20FB31F129666
:10424000ED91FC911397EE0FFF1FEA0DFB1D0190FE
:10425000F081E02D16960D90BC91A02DEA9FA00153
:10426000EB9F500DFA9F500D1124640F751F01969E
:10427000285F3F4FDCCF83E190E00E94C718811197
:10428000B1C0C12CD12CE12CF12CE614F7047CF543
:10429000D8011296ED91FC911397EC0DFD1D8080D5
:1042A0009180A281B381AA0FBB1FAA0DBB1D2D91C6
:1042B0003C9186819781289F2001299F500C389F2F
:1042C000500C1124B201C4010E940219382E92012F
:1042D00040E050E06981C401CBD18983B8E0CB0EC6
:1042E000D11C31107FC0EFEFEE1AFE0ACECF61E095
:1042F00070E0CE0101960E94021974C060E070E087
:1043000083E190E00E94C7186DC040E050E060E09B
:1043100070E081E190E0C9D9811164C0812C912CB9
:104320005401C501B4010E94DB078091B0038823CA
:1043300021F0A701C501B40140DAA701C501B4010C
:104340000E94DB068A9489288A288B2829F0812CF0
:10435000912C54018394E5CF10928304109282042F
:1043600010928F0410928E0480917F0490918004AB
:104370000E94BF1837C081E090E09093B203809311
:10438000B10340E050E060E070E086E190E01FCFD4
:1043900081E0D5018C9326C08D859E850E944419AD
:1043A000009731F42FEF3FEFA90161E070E013C0F7
:1043B000FC012081318142815381CA01B9012C8BDA
:1043C0003D8B4E8B5F8B0E94B20B2C893D894E89B1
:1043D0005F8960E070E08EE190E099D903C0C70189
:1043E0000E94251967960FB6F894DEBF0FBECDBFA9
:1043F000DF91CF911F910F91FF90EF90DF90CF90C1
:10440000BF90AF909F908F907F906F905F904F90F4
:104410003F900895CF92DF92EF92FF92CF93DF9378
:10442000EC01C12CD12C7601C701B6010E94DB073B
:10443000AE01C701B601C1D9AE01C701B6010E94E4
:10444000DB0680917B0490917C04009731F00E9400
:10445000602A10927C0410927B04CA94CD28CE2846
:10446000CF2829F0C12CD12C7601C394DDCF8091C7
:104470008204882359F040E050E060E070E084E17D
:1044800090E013D9F82E1092820401C0F12C809193
:104490008304882341F01092830481E090E090939C
:1044A000E5018093E40180917F04909180040E9453
:1044B000C21880917F04909180040E94B7188F2DBC
:1044C000DF91CF91FF90EF90DF90CF900895CF9341
:1044D000DF93EC01AC0160E070E0CB010E941810AA
:1044E000AE0161E070E080E090E0DF91CF910C944C
:1044F000181060E070E0CB010E94841061E070E071
:1045000080E090E00C948410CF92DF92EF92FF92C3
:104510000F931F93CF93DF93EC016A017B0100E0BF
:1045200010E098010E94020C01E010E020E030E071
:10453000B701A601CE010E94020CDF91CF911F911D
:104540000F91FF90EF90DF90CF90089568EE73E0A9
:1045500080E090E00E943A1380E090E0089526E029
:1045600040E050E16EE070E08CEB93E00E94551566
:104570008CEB93E00E949F14892B29F08CEB93E045
:104580000E94B914F5CF80E090E00895AF92BF92F9
:10459000CF92DF92EF92FF920F931F93CF93DF930F
:1045A00000D0CDB7DEB77A018901F90111821082FE
:1045B0008CEB93E069837A830E949F1469817A81EE
:1045C000892B99F15B01DD24D39485E6C82E809177
:1045D0009004811124C08CEB93E00E94B9148536BD
:1045E0009105A9F7D0929004F501C1925F01F801FD
:1045F00080819181019691838083E9CF8CEB93E058
:104600000E94B9148F3FFFEF9F0749F0F501819396
:104610005F01F80180819181019691838083F80187
:10462000808191818E159F0548F380E090E00F9086
:104630000F90DF91CF911F910F91FF90EF90DF903E
:10464000CF90BF90AF9008950F931F93CF93DF93B8
:10465000EA0189018CEB93E00E948816F801D1836E
:10466000C08380E090E0DF91CF911F910F9108957A
:10467000DC01A40FB51F240F351FAD01481B590BDA
:104680004217530738F4ED91E627F0E0E752FF4F69
:104690006491F3CF862F08959A01AB016FEFE8CFB5
:1046A000CF93FC01E60FF71FE40FF51FC081F4DF85
:1046B00091E0C81390E0892FCF9108958091C104B3
:1046C00090E02091C204821B910908959091C20448
:1046D0008091C104981750F4E92FF0E0ED53FB4F9F
:1046E000208130E09F5F9093C20402C02FEF3FEF24
:1046F000C9010895E091C2048091C104E81730F423
:10470000F0E0ED53FB4F808190E008958FEF9FEF35
:1047100008950895CF92DF92EF92FF920F931F9327
:10472000CF93DF937C01262F972F8A0180919D04E0
:10473000882391F0C62FD72F6E01C40ED51ECC153D
:10474000DD0569F06991D701ED91FC910190F0814F
:10475000E02DC7010995F3CF642F822F8ED1C801B8
:10476000DF91CF911F910F91FF90EF90DF90CF904D
:104770000895CF93DF931F92CDB7DEB76983209161
:104780009D042223D1F020919E04203240F021E0AC
:1047900030E0FC013383228380E090E014C08091FC
:1047A0009F04E82FF0E0E056FB4F998190838F5FE4
:1047B00080939F0480939E0404C061E0CE01019623
:1047C0005CD181E090E00F90DF91CF910895FC01E2
:1047D0001382128288EE93E0A0E0B0E08483958398
:1047E000A683B78383EF92E091838083089510922C
:1047F000C2041092C10410929F0410929E0481C0C2
:1048000081E080939D046093C00410929F041092F5
:104810009E0408950F93062F21E040919E0460EAC4
:1048200074E08091C004D3D010929F0410929E0433
:1048300010929D040F9108954F925F926F927F9214
:10484000AF92BF92CF92EF92FF920F931F93CF93AD
:10485000DF935C01F62ED42F28013901EE2011F1EF
:10486000CFDFCE2DC43008F0C3E0C150C0F0D50179
:10487000ED91FC91B8E0CB9FC0011124A3019201FE
:1048800004C056954795379527958A95D2F7CA0162
:10489000B9010190F081E02DC5010995E6CF60E0F6
:1048A000C501B8DF4D2FD13208F040E22C2D63EC6A
:1048B00074E08F2D44D01092C2048093C104DF9124
:1048C000CF911F910F91FF90EF90CF90BF90AF903D
:1048D0007F906F905F904F900895CF92EF920F93DB
:1048E0001F93C22EE12C00E010E09801A5DF1F917C
:1048F0000F91EF90CF90089521E0EFCF81E994E000
:1049000066CF1092500581E080934E0510924D05C0
:1049100061E082E10E94701461E083E10E94701402
:10492000E9EBF0E080818E7F808380818D7F8083C2
:1049300088E48093B80085E48093BC0008954132F8
:1049400008F043C0909150059111FCCF91E09093F5
:10495000500520934E052FEF2093E3041092280575
:10496000240F2093270590934F0590914F05880FB2
:10497000892B80934F0580914D05813061F4109211
:104980004D0580914F058093BB008091BC0083FD55
:10499000F8CF85EC01C085EE8093BC008091500576
:1049A0008130E1F380912805841710F440912805A7
:1049B00029E235E0FB01D9018A2F821B841718F404
:1049C0008D918193F9CF842F089580E008950F93FE
:1049D000413208F04AC0909150059111FCCF32E06D
:1049E0003093500500934E053FEF3093E30410924F
:1049F000280540932705FB0169E275E0DB013A2FAA
:104A0000361B341718F431913D93F9CF10924F05AE
:104A100030914F05880F832B80934F0580914D0572
:104A2000813061F410924D0580914F058093BB0059
:104A30008091BC0083FDF8CF85EC01C085EE8093AA
:104A4000BC00222321F0809150058230D1F3809167
:104A5000E3048F3F79F08091E304803241F080914C
:104A6000E304803331F094E005C091E003C092E0AC
:104A700001C093E0892F0F91089540910505262FDD
:104A800030E0240F311D21323105DCF42091500536
:104A90002430C9F4FC0180E090E0861758F430918E
:104AA00005052191DC01A95FBA4FA30FB11D2C931D
:104AB0000196F3CF80910505680F6093050580E0AE
:104AC000089581E0089582E0089585ED8093BC000B
:104AD0008091BC0084FDFCCF10925005089585ECB8
:104AE0008093BC001092500508951F920F920FB64C
:104AF0000F9211242F933F934F935F936F937F9364
:104B00008F939F93AF93BF93EF93FF938091B900DF
:104B1000887F803609F49DC070F5883209F45CC046
:104B200090F4803109F455C038F4882309F4F3C0B7
:104B3000883009F44EC0F2C0883109F44DC080328B
:104B400009F45EC0EBC0803409F469C050F48033CE
:104B500009F456C0883309F0E1C08093E304BFDF55
:104B6000DDC0803509F44FC0883509F45DC0883454
:104B700009F0D4C0D2C0883909F4C3C0A8F488377A
:104B800009F467C038F4883609F463C0803709F443
:104B900060C0C4C0883809F4B4C0803909F45FC06B
:104BA000803809F0BBC05BC0803B09F482C038F498
:104BB000803A09F466C0883A09F47BC0AFC0803CF3
:104BC00009F4A3C0883C09F4A0C0883B09F486C05E
:104BD000A5C080914F0510C09091280580912705B0
:104BE000981770F5E091280581E08E0F80932805D5
:104BF000F0E0E75DFA4F80818093BB0085EC82C0D6
:104C00008093E3048AC0E091280581E08E0F8093B1
:104C100028058091BB00F0E0E75DFA4F808390911A
:104C20002805809127056AC0E091280581E08E0F54
:104C3000809328058091BB00F0E0E75DFA4F808308
:104C400080914E05811169C081E080934D0584EA11
:104C50005DC083E0809350051092E404CFCF809133
:104C6000E404803208F04DC0E091E40481E08E0F4E
:104C70008093E4048091BB00F0E0EB51FB4F808314
:104C8000BDCF2DDF8091E404803230F4E091E40464
:104C9000F0E0EB51FB4F10826091E40470E0E09192
:104CA0004905F0914A0585EE94E009951092E404D7
:104CB00035C084E0809350051092060510920505DA
:104CC000E0914B05F0914C05099580910505811106
:104CD00005C081E08093050510920705E091060567
:104CE00081E08E0F80930605F0E0E95FFA4F808146
:104CF0008093BB009091060580910505981708F4F4
:104D00007DCF85E88093BC0009C085EC8093BC0012
:104D10001092500503C01092E304D7DEFF91EF918B
:104D2000BF91AF919F918F917F916F915F914F91C3
:104D30003F912F910F900FBE0F901F90189580916B
:104D4000520591E0980F90935205882349F021E095
:104D500030E0309354052093530580935205089515
:104D600078940E94A301F894809152058150809319
:104D700052050C942812FF920F931F93CF93DF9349
:104D800000D0CDB7DEB7FF24F394FA820E947313EC
:104D90000E94B81700918D0210918E02F8011182C5
:104DA000108260E070E080E090E00E9431120E948A
:104DB000B6037894C80186960E94301281E090E094
:104DC0000E942C121982AE014F5F5F4F61E070E0CC
:104DD000F801828193810E94D6118981882311F084
:104DE000F801F2A60E943712F8940E94EF17F8011A
:104DF00080819181892B19F481E092A5911180E045
:104E00008A8378947894FF24F3948A81882371F1BB
:104E10001982AE014F5F5F4F61E070E0F80182815F
:104E200093810E9412128981882311F0F801F2A661
:104E3000F80180819181892B31F481E092A5911153
:104E400003C080E001C081E080935105909151053D
:104E500081E0911180E08A838A81882319F00E9481
:104E60000E1802C080E090E08A83CFCF81E090E00E
:104E70000E942E120E94B804F89480E090E00F90F7
:104E80000F90DF91CF911F910F91FF90089550588F
:104E9000BB27AA270ED075C166D130F06BD120F0A8
:104EA00031F49F3F11F41EF45BC10EF4E095E7FB73
:104EB00051C1E92F77D180F3BA17620773078407CE
:104EC000950718F071F49EF58FC10EF4E0950B2E46
:104ED000BA2FA02D0B01B90190010C01CA01A0014C
:104EE0001124FF27591B99F0593F50F4503E68F1A7
:104EF0001A16F040A22F232F342F4427585FF3CFE8
:104F0000469537952795A795F0405395C9F77EF4B8
:104F10001F16BA0B620B730B840BBAF09150A1F001
:104F2000FF0FBB1F661F771F881FC2F70EC0BA0F87
:104F3000621F731F841F48F4879577956795B7950F
:104F4000F7959E3F08F0B3CF9395880F08F0992707
:104F5000EE0F979587950895D9D008F481E00895CC
:104F60000CD00FC107D140F0FED030F021F45F3FEC
:104F700019F0F0C0511139C1F3C014D198F399233D
:104F8000C9F35523B1F3951B550BBB27AA2762170D
:104F90007307840738F09F5F5F4F220F331F441F52
:104FA000AA1FA9F333D00E2E3AF0E0E830D091508A
:104FB0005040E695001CCAF729D0FE2F27D0660F77
:104FC000771F881FBB1F261737074807AB07B0E8B6
:104FD00009F0BB0B802DBF01FF2793585F4F2AF0CC
:104FE0009E3F510568F0B6C000C15F3FECF3983EAC
:104FF000DCF3869577956795B795F7959F5FC9F729
:10500000880F911D9695879597F90895E1E0660FB1
:10501000771F881FBB1F621773078407BA0720F02A
:10502000621B730B840BBA0BEE1F88F7E095089593
:1050300004D06894B111D9C00895BCD088F09F57AE
:1050400090F0B92F9927B751A0F0D1F0660F771FD4
:10505000881F991F1AF0BA95C9F712C0B13081F0B4
:10506000C3D0B1E00895C0C0672F782F8827B85FFC
:1050700039F0B93FCCF3869577956795B395D9F715
:105080003EF490958095709561957F4F8F4F9F4F1F
:105090000895E89409C097FB3EF49095809570952B
:1050A00061957F4F8F4F9F4F9923A9F0F92F96E974
:1050B000BB279395F695879577956795B795F111E9
:1050C000F8CFFAF4BB0F11F460FF1BC06F5F7F4F86
:1050D0008F4F9F4F16C0882311F096E911C0772398
:1050E00021F09EE8872F762F05C0662371F096E8A1
:1050F000862F70E060E02AF09A95660F771F881F70
:10510000DAF7880F9695879597F90895990F000813
:10511000550FAA0BE0E8FEEF16161706E807F90789
:10512000C0F012161306E407F50798F0621B730B24
:10513000840B950B39F40A2661F0232B242B252BA5
:1051400021F408950A2609F4A140A6958FEF811D48
:10515000811D089597F99F6780E870E060E00895E9
:105160009FEF80EC089500240A941616170618067F
:105170000906089500240A9412161306140605065B
:105180000895092E0394000C11F4882352F0BB0FEC
:1051900040F4BF2B11F460FF04C06F5F7F4F8F4F4F
:1051A0009F4F089557FD9058440F551F59F05F3F8A
:1051B00071F04795880F97FB991F61F09F3F79F039
:1051C00087950895121613061406551FF2CF4695BB
:1051D000F1DF08C0161617061806991FF1CF86953D
:1051E0007105610508940895E894BB276627772721
:1051F000CB0197F908958ADF08F48FEF08950BD05B
:10520000C0CFB1DF28F0B6DF18F0952309F0A2CFA8
:10521000A7CF1124EACFC6DFA0F3959FD1F3950F56
:1052200050E0551F629FF001729FBB27F00DB11D2A
:10523000639FAA27F00DB11DAA1F649F6627B00DBA
:10524000A11D661F829F2227B00DA11D621F739FA3
:10525000B00DA11D621F839FA00D611D221F749FB1
:105260003327A00D611D231F849F600D211D822FF8
:10527000762F6A2F11249F5750408AF0E1F088233F
:105280004AF0EE0FFF1FBB1F661F771F881F91504C
:105290005040A9F79E3F510570F05CCFA6CF5F3F0D
:1052A000ECF3983EDCF3869577956795B795F7957F
:1052B000E7959F5FC1F7FE2B880F911D9695879507
:1052C00097F9089597FB072E16F4009406D077FD02
:1052D00008D033D007FC05D03EF4909581959F4FC0
:1052E0000895709561957F4F0895A1E21A2EAA1B2B
:1052F000BB1BFD010DC0AA1FBB1FEE1FFF1FA21786
:10530000B307E407F50720F0A21BB30BE40BF50B82
:10531000661F771F881F991F1A9469F7609570950B
:10532000809590959B01AC01BD01CF010895EE0FD2
:10533000FF1F0590F491E02D0994AA1BBB1B51E1BE
:1053400007C0AA1FBB1FA617B70710F0A61BB70BF5
:10535000881F991F5A95A9F780959095BC01CD019A
:1053600008950F931F93CF93DF93869F8001879FAC
:10537000100D969F100D1124C8010DD0EC0100975F
:1053800021F0A80160E070E03CD1CE01DF91CF9127
:105390001F910F910895CF93DF938230910510F400
:1053A00082E090E0E091D605F091D70520E030E072
:1053B000C0E0D0E0309711F1408151814817590782
:1053C000C0F04817590761F482819381209719F042
:1053D0009B838A832BC09093D7058093D60526C0E4
:1053E0002115310519F04217530718F49A01BE012F
:1053F000DF01EF010280F381E02DDCCF21153105C3
:1054000009F1281B390B2430310590F412968D9147
:105410009C9113976115710521F0FB0193838283A1
:1054200004C09093D7058093D605FD01329644C001
:10543000FD01E20FF31F81939193225031092D93C7
:105440003C933AC02091D4053091D505232B41F4EB
:1054500020910201309103013093D5052093D405AA
:1054600020910001309101012115310541F42DB742
:105470003EB74091040150910501241B350BE0918A
:10548000D405F091D505E217F307A0F42E1B3F0BCE
:105490002817390778F0AC014E5F5F4F24173507A6
:1054A00048F04E0F5F1F5093D5054093D40581936C
:1054B000919302C0E0E0F0E0CF01DF91CF91089539
:1054C0000F931F93CF93DF93009709F48CC0FC01D7
:1054D0003297138212820091D6051091D7050115DB
:1054E000110581F420813181820F931F2091D40511
:1054F0003091D5052817390779F5F093D505E09354
:10550000D40571C0D80140E050E0AE17BF0750F499
:1055100012962D913C911397AD012115310509F19A
:10552000D901F3CF9D01DA01338322836081718138
:10553000860F971F8217930769F4EC012881398140
:10554000260F371F2E5F3F4F318320838A819B8137
:1055500093838283452B29F4F093D705E093D605F6
:1055600042C01396FC93EE931297ED014991599125
:105570009E01240F351FE217F30771F4808191819A
:10558000840F951F029611969C938E93828193812E
:1055900013969C938E931297E0E0F0E0D801129658
:1055A0008D919C911397009719F0F8018C01F6CF1B
:1055B0008D919C9198012E5F3F4F820F931F2091F8
:1055C000D4053091D5052817390769F4309729F4A7
:1055D0001092D7051092D60502C013821282109342
:1055E000D5050093D405DF91CF911F910F910895B8
:1055F000FB01DC0102C001900D9241505040D8F7F0
:105600000895DC0101C06D9341505040E0F70895CA
:10561000FB01DC018D91019080190110D9F3990BE8
:065620000895F894FFCF8D
:105626000000D80580000100000001000E01A6015F
:10563600000000000F0009001A01800500000000AC
:105646000500940503000000010095050800000010
:1056560001009605100000000100AE050E000000D6
:105666000100B4050F0000000200C00500000000A4
:105676000200C8050B0000000400D0050800000069
:105686000400FF01060210020F021802170221028F
:105696002002290233023E0244024E0257026B02E6
:1056A60076028102040004000100010002000200EB
:1056B60004000400010004000200020004000800C7
:1056C600060006001800CDCCCC3D00000000CDCC75
:1056D600CC3D00007F43000000000000FA440000BB
:1056E6000000DA39CD3B0000803F20637EBF00001A
:1056F600000017B7D1380000000000007F4300000B
:105706008043010101007C127C12FF53696D756CA8
:105716006174696F6E2066696E697368656400728C
:1057260065616C5F54007265616C33325F5400755D
:10573600696E74385F540075696E7431365F540053
:1057460075696E7433325F5400626F6F6C65616E9B
:105756005F540066636E5F63616C6C5F5400696ED4
:10576600745F5400706F696E7465725F5400616394
:1057760074696F6E5F540074696D65725F75696EEA
:105786007433325F706169725F54006E6E6D75615D
:10579600353579616B0061787533737A6572733369
:1057A600006B63656F6C6E3370736800015505009E
:1057B6000000000F1588169F14B914AB14EE1400E0
:1057C6000000003E162D77002D69676E6F72652DFD
:1057D60061726700436F756C64206E6F742063722C
:1057E600656174652065787465726E616C206D6F95
:1057F6006465207573657220646174612E20204F84
:105806007574206F66206D656D6F72792E0A0000C3
:10581600000000B9238A235E2366237A23892300A6
:00000001FF
